{
  "_format": "hh-sol-artifact-1",
  "contractName": "Membresia",
  "sourceName": "contracts/Membresia.sol",
  "abi": [
    {
      "inputs": [],
      "stateMutability": "nonpayable",
      "type": "constructor"
    },
    {
      "anonymous": false,
      "inputs": [
        {
          "indexed": true,
          "internalType": "address",
          "name": "owner",
          "type": "address"
        },
        {
          "indexed": true,
          "internalType": "address",
          "name": "approved",
          "type": "address"
        },
        {
          "indexed": true,
          "internalType": "uint256",
          "name": "tokenId",
          "type": "uint256"
        }
      ],
      "name": "Approval",
      "type": "event"
    },
    {
      "anonymous": false,
      "inputs": [
        {
          "indexed": true,
          "internalType": "address",
          "name": "owner",
          "type": "address"
        },
        {
          "indexed": true,
          "internalType": "address",
          "name": "operator",
          "type": "address"
        },
        {
          "indexed": false,
          "internalType": "bool",
          "name": "approved",
          "type": "bool"
        }
      ],
      "name": "ApprovalForAll",
      "type": "event"
    },
    {
      "anonymous": false,
      "inputs": [
        {
          "indexed": true,
          "internalType": "address",
          "name": "delegator",
          "type": "address"
        },
        {
          "indexed": true,
          "internalType": "address",
          "name": "fromDelegate",
          "type": "address"
        },
        {
          "indexed": true,
          "internalType": "address",
          "name": "toDelegate",
          "type": "address"
        }
      ],
      "name": "DelegateChanged",
      "type": "event"
    },
    {
      "anonymous": false,
      "inputs": [
        {
          "indexed": true,
          "internalType": "address",
          "name": "delegate",
          "type": "address"
        },
        {
          "indexed": false,
          "internalType": "uint256",
          "name": "previousBalance",
          "type": "uint256"
        },
        {
          "indexed": false,
          "internalType": "uint256",
          "name": "newBalance",
          "type": "uint256"
        }
      ],
      "name": "DelegateVotesChanged",
      "type": "event"
    },
    {
      "anonymous": false,
      "inputs": [
        {
          "indexed": true,
          "internalType": "bytes32",
          "name": "role",
          "type": "bytes32"
        },
        {
          "indexed": true,
          "internalType": "bytes32",
          "name": "previousAdminRole",
          "type": "bytes32"
        },
        {
          "indexed": true,
          "internalType": "bytes32",
          "name": "newAdminRole",
          "type": "bytes32"
        }
      ],
      "name": "RoleAdminChanged",
      "type": "event"
    },
    {
      "anonymous": false,
      "inputs": [
        {
          "indexed": true,
          "internalType": "bytes32",
          "name": "role",
          "type": "bytes32"
        },
        {
          "indexed": true,
          "internalType": "address",
          "name": "account",
          "type": "address"
        },
        {
          "indexed": true,
          "internalType": "address",
          "name": "sender",
          "type": "address"
        }
      ],
      "name": "RoleGranted",
      "type": "event"
    },
    {
      "anonymous": false,
      "inputs": [
        {
          "indexed": true,
          "internalType": "bytes32",
          "name": "role",
          "type": "bytes32"
        },
        {
          "indexed": true,
          "internalType": "address",
          "name": "account",
          "type": "address"
        },
        {
          "indexed": true,
          "internalType": "address",
          "name": "sender",
          "type": "address"
        }
      ],
      "name": "RoleRevoked",
      "type": "event"
    },
    {
      "anonymous": false,
      "inputs": [
        {
          "indexed": true,
          "internalType": "address",
          "name": "from",
          "type": "address"
        },
        {
          "indexed": true,
          "internalType": "address",
          "name": "to",
          "type": "address"
        },
        {
          "indexed": true,
          "internalType": "uint256",
          "name": "tokenId",
          "type": "uint256"
        }
      ],
      "name": "Transfer",
      "type": "event"
    },
    {
      "inputs": [],
      "name": "DEFAULT_ADMIN_ROLE",
      "outputs": [
        {
          "internalType": "bytes32",
          "name": "",
          "type": "bytes32"
        }
      ],
      "stateMutability": "view",
      "type": "function"
    },
    {
      "inputs": [],
      "name": "DOMAIN_SEPARATOR",
      "outputs": [
        {
          "internalType": "bytes32",
          "name": "",
          "type": "bytes32"
        }
      ],
      "stateMutability": "view",
      "type": "function"
    },
    {
      "inputs": [],
      "name": "MINTER_ROLE",
      "outputs": [
        {
          "internalType": "bytes32",
          "name": "",
          "type": "bytes32"
        }
      ],
      "stateMutability": "view",
      "type": "function"
    },
    {
      "inputs": [
        {
          "internalType": "address",
          "name": "to",
          "type": "address"
        },
        {
          "internalType": "uint256",
          "name": "tokenId",
          "type": "uint256"
        }
      ],
      "name": "approve",
      "outputs": [],
      "stateMutability": "nonpayable",
      "type": "function"
    },
    {
      "inputs": [
        {
          "internalType": "address",
          "name": "owner",
          "type": "address"
        }
      ],
      "name": "balanceOf",
      "outputs": [
        {
          "internalType": "uint256",
          "name": "",
          "type": "uint256"
        }
      ],
      "stateMutability": "view",
      "type": "function"
    },
    {
      "inputs": [
        {
          "internalType": "uint256",
          "name": "tokenId",
          "type": "uint256"
        }
      ],
      "name": "burn",
      "outputs": [],
      "stateMutability": "nonpayable",
      "type": "function"
    },
    {
      "inputs": [
        {
          "internalType": "address",
          "name": "delegatee",
          "type": "address"
        }
      ],
      "name": "delegate",
      "outputs": [],
      "stateMutability": "nonpayable",
      "type": "function"
    },
    {
      "inputs": [
        {
          "internalType": "address",
          "name": "delegatee",
          "type": "address"
        },
        {
          "internalType": "uint256",
          "name": "nonce",
          "type": "uint256"
        },
        {
          "internalType": "uint256",
          "name": "expiry",
          "type": "uint256"
        },
        {
          "internalType": "uint8",
          "name": "v",
          "type": "uint8"
        },
        {
          "internalType": "bytes32",
          "name": "r",
          "type": "bytes32"
        },
        {
          "internalType": "bytes32",
          "name": "s",
          "type": "bytes32"
        }
      ],
      "name": "delegateBySig",
      "outputs": [],
      "stateMutability": "nonpayable",
      "type": "function"
    },
    {
      "inputs": [
        {
          "internalType": "address",
          "name": "account",
          "type": "address"
        }
      ],
      "name": "delegates",
      "outputs": [
        {
          "internalType": "address",
          "name": "",
          "type": "address"
        }
      ],
      "stateMutability": "view",
      "type": "function"
    },
    {
      "inputs": [
        {
          "internalType": "uint256",
          "name": "tokenId",
          "type": "uint256"
        }
      ],
      "name": "getApproved",
      "outputs": [
        {
          "internalType": "address",
          "name": "",
          "type": "address"
        }
      ],
      "stateMutability": "view",
      "type": "function"
    },
    {
      "inputs": [
        {
          "internalType": "uint256",
          "name": "blockNumber",
          "type": "uint256"
        }
      ],
      "name": "getPastTotalSupply",
      "outputs": [
        {
          "internalType": "uint256",
          "name": "",
          "type": "uint256"
        }
      ],
      "stateMutability": "view",
      "type": "function"
    },
    {
      "inputs": [
        {
          "internalType": "address",
          "name": "account",
          "type": "address"
        },
        {
          "internalType": "uint256",
          "name": "blockNumber",
          "type": "uint256"
        }
      ],
      "name": "getPastVotes",
      "outputs": [
        {
          "internalType": "uint256",
          "name": "",
          "type": "uint256"
        }
      ],
      "stateMutability": "view",
      "type": "function"
    },
    {
      "inputs": [
        {
          "internalType": "bytes32",
          "name": "role",
          "type": "bytes32"
        }
      ],
      "name": "getRoleAdmin",
      "outputs": [
        {
          "internalType": "bytes32",
          "name": "",
          "type": "bytes32"
        }
      ],
      "stateMutability": "view",
      "type": "function"
    },
    {
      "inputs": [
        {
          "internalType": "address",
          "name": "account",
          "type": "address"
        }
      ],
      "name": "getVotes",
      "outputs": [
        {
          "internalType": "uint256",
          "name": "",
          "type": "uint256"
        }
      ],
      "stateMutability": "view",
      "type": "function"
    },
    {
      "inputs": [
        {
          "internalType": "bytes32",
          "name": "role",
          "type": "bytes32"
        },
        {
          "internalType": "address",
          "name": "account",
          "type": "address"
        }
      ],
      "name": "grantRole",
      "outputs": [],
      "stateMutability": "nonpayable",
      "type": "function"
    },
    {
      "inputs": [
        {
          "internalType": "bytes32",
          "name": "role",
          "type": "bytes32"
        },
        {
          "internalType": "address",
          "name": "account",
          "type": "address"
        }
      ],
      "name": "hasRole",
      "outputs": [
        {
          "internalType": "bool",
          "name": "",
          "type": "bool"
        }
      ],
      "stateMutability": "view",
      "type": "function"
    },
    {
      "inputs": [
        {
          "internalType": "address",
          "name": "owner",
          "type": "address"
        },
        {
          "internalType": "address",
          "name": "operator",
          "type": "address"
        }
      ],
      "name": "isApprovedForAll",
      "outputs": [
        {
          "internalType": "bool",
          "name": "",
          "type": "bool"
        }
      ],
      "stateMutability": "view",
      "type": "function"
    },
    {
      "inputs": [],
      "name": "name",
      "outputs": [
        {
          "internalType": "string",
          "name": "",
          "type": "string"
        }
      ],
      "stateMutability": "view",
      "type": "function"
    },
    {
      "inputs": [
        {
          "internalType": "address",
          "name": "owner",
          "type": "address"
        }
      ],
      "name": "nonces",
      "outputs": [
        {
          "internalType": "uint256",
          "name": "",
          "type": "uint256"
        }
      ],
      "stateMutability": "view",
      "type": "function"
    },
    {
      "inputs": [
        {
          "internalType": "uint256",
          "name": "tokenId",
          "type": "uint256"
        }
      ],
      "name": "ownerOf",
      "outputs": [
        {
          "internalType": "address",
          "name": "",
          "type": "address"
        }
      ],
      "stateMutability": "view",
      "type": "function"
    },
    {
      "inputs": [
        {
          "internalType": "bytes32",
          "name": "role",
          "type": "bytes32"
        },
        {
          "internalType": "address",
          "name": "account",
          "type": "address"
        }
      ],
      "name": "renounceRole",
      "outputs": [],
      "stateMutability": "nonpayable",
      "type": "function"
    },
    {
      "inputs": [
        {
          "internalType": "bytes32",
          "name": "role",
          "type": "bytes32"
        },
        {
          "internalType": "address",
          "name": "account",
          "type": "address"
        }
      ],
      "name": "revokeRole",
      "outputs": [],
      "stateMutability": "nonpayable",
      "type": "function"
    },
    {
      "inputs": [
        {
          "internalType": "address",
          "name": "to",
          "type": "address"
        },
        {
          "internalType": "string",
          "name": "uri",
          "type": "string"
        }
      ],
      "name": "safeMint",
      "outputs": [],
      "stateMutability": "nonpayable",
      "type": "function"
    },
    {
      "inputs": [
        {
          "internalType": "address",
          "name": "from",
          "type": "address"
        },
        {
          "internalType": "address",
          "name": "to",
          "type": "address"
        },
        {
          "internalType": "uint256",
          "name": "tokenId",
          "type": "uint256"
        }
      ],
      "name": "safeTransferFrom",
      "outputs": [],
      "stateMutability": "nonpayable",
      "type": "function"
    },
    {
      "inputs": [
        {
          "internalType": "address",
          "name": "from",
          "type": "address"
        },
        {
          "internalType": "address",
          "name": "to",
          "type": "address"
        },
        {
          "internalType": "uint256",
          "name": "tokenId",
          "type": "uint256"
        },
        {
          "internalType": "bytes",
          "name": "data",
          "type": "bytes"
        }
      ],
      "name": "safeTransferFrom",
      "outputs": [],
      "stateMutability": "nonpayable",
      "type": "function"
    },
    {
      "inputs": [
        {
          "internalType": "address",
          "name": "operator",
          "type": "address"
        },
        {
          "internalType": "bool",
          "name": "approved",
          "type": "bool"
        }
      ],
      "name": "setApprovalForAll",
      "outputs": [],
      "stateMutability": "nonpayable",
      "type": "function"
    },
    {
      "inputs": [
        {
          "internalType": "bytes4",
          "name": "interfaceId",
          "type": "bytes4"
        }
      ],
      "name": "supportsInterface",
      "outputs": [
        {
          "internalType": "bool",
          "name": "",
          "type": "bool"
        }
      ],
      "stateMutability": "view",
      "type": "function"
    },
    {
      "inputs": [],
      "name": "symbol",
      "outputs": [
        {
          "internalType": "string",
          "name": "",
          "type": "string"
        }
      ],
      "stateMutability": "view",
      "type": "function"
    },
    {
      "inputs": [
        {
          "internalType": "uint256",
          "name": "index",
          "type": "uint256"
        }
      ],
      "name": "tokenByIndex",
      "outputs": [
        {
          "internalType": "uint256",
          "name": "",
          "type": "uint256"
        }
      ],
      "stateMutability": "view",
      "type": "function"
    },
    {
      "inputs": [
        {
          "internalType": "address",
          "name": "owner",
          "type": "address"
        },
        {
          "internalType": "uint256",
          "name": "index",
          "type": "uint256"
        }
      ],
      "name": "tokenOfOwnerByIndex",
      "outputs": [
        {
          "internalType": "uint256",
          "name": "",
          "type": "uint256"
        }
      ],
      "stateMutability": "view",
      "type": "function"
    },
    {
      "inputs": [
        {
          "internalType": "uint256",
          "name": "tokenId",
          "type": "uint256"
        }
      ],
      "name": "tokenURI",
      "outputs": [
        {
          "internalType": "string",
          "name": "",
          "type": "string"
        }
      ],
      "stateMutability": "view",
      "type": "function"
    },
    {
      "inputs": [],
      "name": "totalSupply",
      "outputs": [
        {
          "internalType": "uint256",
          "name": "",
          "type": "uint256"
        }
      ],
      "stateMutability": "view",
      "type": "function"
    },
    {
      "inputs": [
        {
          "internalType": "address",
          "name": "from",
          "type": "address"
        },
        {
          "internalType": "address",
          "name": "to",
          "type": "address"
        },
        {
          "internalType": "uint256",
          "name": "tokenId",
          "type": "uint256"
        }
      ],
      "name": "transferFrom",
      "outputs": [],
      "stateMutability": "nonpayable",
      "type": "function"
    }
  ],
  "bytecode": "0x6101406040523480156200001257600080fd5b50604051806040016040528060098152602001684d656d62726573696160b81b815250604051806040016040528060018152602001603160f81b815250604051806040016040528060098152602001684d656d62726573696160b81b815250604051806040016040528060038152602001624d454d60e81b8152508160009080519060200190620000a592919062000231565b508051620000bb90600190602084019062000231565b5050825160209384012082519284019290922060e08390526101008190524660a0818152604080517f8b73c3c69bb8fe3d512ecc4cf759cc79239f7b179b0ffacaa9a75d522b39400f818901819052818301979097526060810194909452608080850193909352308483018190528151808603909301835260c09485019091528151919096012090529290925261012052506200015a6000336200018c565b620001867f9f2df0fed2c77648de5860a4cc508cd0818c85b8b8a1ab4ceeef8d981c8956a6336200018c565b62000314565b6000828152600b602090815260408083206001600160a01b038516845290915290205460ff166200022d576000828152600b602090815260408083206001600160a01b03851684529091529020805460ff19166001179055620001ec3390565b6001600160a01b0316816001600160a01b0316837f2f8788117e7eff1d82e926ec794901d17c78024a50270940304540a733656f0d60405160405180910390a45b5050565b8280546200023f90620002d7565b90600052602060002090601f016020900481019282620002635760008555620002ae565b82601f106200027e57805160ff1916838001178555620002ae565b82800160010185558215620002ae579182015b82811115620002ae57825182559160200191906001019062000291565b50620002bc929150620002c0565b5090565b5b80821115620002bc5760008155600101620002c1565b600181811c90821680620002ec57607f821691505b602082108114156200030e57634e487b7160e01b600052602260045260246000fd5b50919050565b60805160a05160c05160e05161010051610120516132f7620003646000396000611121015260006111700152600061114b015260006110a4015260006110ce015260006110f801526132f76000f3fe608060405234801561001057600080fd5b50600436106101fb5760003560e01c80635c19a95c1161011a578063a217fddf116100ad578063c87b56dd1161007c578063c87b56dd1461044c578063d204c45e1461045f578063d539139314610472578063d547741f14610499578063e985e9c5146104ac57600080fd5b8063a217fddf1461040b578063a22cb46514610413578063b88d4fde14610426578063c3cda5201461043957600080fd5b80638e539e8c116100e95780638e539e8c146103ca57806391d14854146103dd57806395d89b41146103f05780639ab24eb0146103f857600080fd5b80635c19a95c1461037e5780636352211e1461039157806370a08231146103a45780637ecebe00146103b757600080fd5b80632f745c591161019257806342842e0e1161016157806342842e0e1461031957806342966c681461032c5780634f6ccce71461033f578063587cde1e1461035257600080fd5b80632f745c59146102d85780633644e515146102eb57806336568abe146102f35780633a46b1a81461030657600080fd5b806318160ddd116101ce57806318160ddd1461027d57806323b872dd1461028f578063248a9ca3146102a25780632f2ff15d146102c557600080fd5b806301ffc9a71461020057806306fdde0314610228578063081812fc1461023d578063095ea7b314610268575b600080fd5b61021361020e366004612c1b565b6104e8565b60405190151581526020015b60405180910390f35b6102306104f9565b60405161021f9190612c90565b61025061024b366004612ca3565b61058b565b6040516001600160a01b03909116815260200161021f565b61027b610276366004612cd8565b6105b2565b005b6008545b60405190815260200161021f565b61027b61029d366004612d02565b6106cd565b6102816102b0366004612ca3565b6000908152600b602052604090206001015490565b61027b6102d3366004612d3e565b6106ff565b6102816102e6366004612cd8565b610724565b6102816107ba565b61027b610301366004612d3e565b6107c9565b610281610314366004612cd8565b610847565b61027b610327366004612d02565b610870565b61027b61033a366004612ca3565b61088b565b61028161034d366004612ca3565b6108bc565b610250610360366004612d6a565b6001600160a01b039081166000908152600c60205260409020541690565b61027b61038c366004612d6a565b61094f565b61025061039f366004612ca3565b61095a565b6102816103b2366004612d6a565b6109ba565b6102816103c5366004612d6a565b610a40565b6102816103d8366004612ca3565b610a5e565b6102136103eb366004612d3e565b610aba565b610230610ae5565b610281610406366004612d6a565b610af4565b610281600081565b61027b610421366004612d85565b610b24565b61027b610434366004612e4d565b610b2f565b61027b610447366004612ec9565b610b67565b61023061045a366004612ca3565b610c94565b61027b61046d366004612f29565b610c9f565b6102817f9f2df0fed2c77648de5860a4cc508cd0818c85b8b8a1ab4ceeef8d981c8956a681565b61027b6104a7366004612d3e565b610cf8565b6102136104ba366004612f8b565b6001600160a01b03918216600090815260056020908152604080832093909416825291909152205460ff1690565b60006104f382610d1d565b92915050565b60606000805461050890612fb5565b80601f016020809104026020016040519081016040528092919081815260200182805461053490612fb5565b80156105815780601f1061055657610100808354040283529160200191610581565b820191906000526020600020905b81548152906001019060200180831161056457829003601f168201915b5050505050905090565b600061059682610d42565b506000908152600460205260409020546001600160a01b031690565b60006105bd8261095a565b9050806001600160a01b0316836001600160a01b031614156106305760405162461bcd60e51b815260206004820152602160248201527f4552433732313a20617070726f76616c20746f2063757272656e74206f776e656044820152603960f91b60648201526084015b60405180910390fd5b336001600160a01b038216148061064c575061064c81336104ba565b6106be5760405162461bcd60e51b815260206004820152603d60248201527f4552433732313a20617070726f76652063616c6c6572206973206e6f7420746f60448201527f6b656e206f776e6572206f7220617070726f76656420666f7220616c6c0000006064820152608401610627565b6106c88383610da1565b505050565b6106d8335b82610e0f565b6106f45760405162461bcd60e51b815260040161062790612fea565b6106c8838383610e8e565b6000828152600b602052604090206001015461071a81611007565b6106c88383611011565b600061072f836109ba565b82106107915760405162461bcd60e51b815260206004820152602b60248201527f455243373231456e756d657261626c653a206f776e657220696e646578206f7560448201526a74206f6620626f756e647360a81b6064820152608401610627565b506001600160a01b03919091166000908152600660209081526040808320938352929052205490565b60006107c4611097565b905090565b6001600160a01b03811633146108395760405162461bcd60e51b815260206004820152602f60248201527f416363657373436f6e74726f6c3a2063616e206f6e6c792072656e6f756e636560448201526e103937b632b9903337b91039b2b63360891b6064820152608401610627565b61084382826111be565b5050565b6001600160a01b0382166000908152600d602052604081206108699083611225565b9392505050565b6106c883838360405180602001604052806000815250610b2f565b610894336106d2565b6108b05760405162461bcd60e51b815260040161062790612fea565b6108b981611341565b50565b60006108c760085490565b821061092a5760405162461bcd60e51b815260206004820152602c60248201527f455243373231456e756d657261626c653a20676c6f62616c20696e646578206f60448201526b7574206f6620626f756e647360a01b6064820152608401610627565b6008828154811061093d5761093d613037565b90600052602060002001549050919050565b33610843818361134a565b6000818152600260205260408120546001600160a01b0316806104f35760405162461bcd60e51b8152602060048201526018602482015277115490cdcc8c4e881a5b9d985b1a59081d1bdad95b88125160421b6044820152606401610627565b60006001600160a01b038216610a245760405162461bcd60e51b815260206004820152602960248201527f4552433732313a2061646472657373207a65726f206973206e6f7420612076616044820152683634b21037bbb732b960b91b6064820152608401610627565b506001600160a01b031660009081526003602052604090205490565b6001600160a01b0381166000908152600f60205260408120546104f3565b6000438210610aaf5760405162461bcd60e51b815260206004820152601a60248201527f566f7465733a20626c6f636b206e6f7420796574206d696e65640000000000006044820152606401610627565b6104f3600e83611225565b6000918252600b602090815260408084206001600160a01b0393909316845291905290205460ff1690565b60606001805461050890612fb5565b6001600160a01b0381166000908152600d60205260408120610b15906113bc565b6001600160e01b031692915050565b6108433383836113f6565b610b393383610e0f565b610b555760405162461bcd60e51b815260040161062790612fea565b610b61848484846114c5565b50505050565b83421115610bb75760405162461bcd60e51b815260206004820152601860248201527f566f7465733a207369676e6174757265206578706972656400000000000000006044820152606401610627565b604080517fe48329057bfd03d55e49b547132e39cffd9c1820ad7b9d4c5307691425d15adf60208201526001600160a01b038816918101919091526060810186905260808101859052600090610c3190610c299060a001604051602081830303815290604052805190602001206114f8565b858585611546565b9050610c3c8161156e565b8614610c815760405162461bcd60e51b8152602060048201526014602482015273566f7465733a20696e76616c6964206e6f6e636560601b6044820152606401610627565b610c8b818861134a565b50505050505050565b60606104f382611596565b7f9f2df0fed2c77648de5860a4cc508cd0818c85b8b8a1ab4ceeef8d981c8956a6610cc981611007565b6000610cd460105490565b9050610ce4601080546001019055565b610cee848261169f565b610b6181846116b9565b6000828152600b6020526040902060010154610d1381611007565b6106c883836111be565b60006001600160e01b03198216637965db0b60e01b14806104f357506104f382611753565b6000818152600260205260409020546001600160a01b03166108b95760405162461bcd60e51b8152602060048201526018602482015277115490cdcc8c4e881a5b9d985b1a59081d1bdad95b88125160421b6044820152606401610627565b600081815260046020526040902080546001600160a01b0319166001600160a01b0384169081179091558190610dd68261095a565b6001600160a01b03167f8c5be1e5ebec7d5bd14f71427d1e84f3dd0314c0f7b2291e5b200ac8c7c3b92560405160405180910390a45050565b600080610e1b8361095a565b9050806001600160a01b0316846001600160a01b03161480610e6257506001600160a01b0380821660009081526005602090815260408083209388168352929052205460ff165b80610e865750836001600160a01b0316610e7b8461058b565b6001600160a01b0316145b949350505050565b826001600160a01b0316610ea18261095a565b6001600160a01b031614610ec75760405162461bcd60e51b81526004016106279061304d565b6001600160a01b038216610f295760405162461bcd60e51b8152602060048201526024808201527f4552433732313a207472616e7366657220746f20746865207a65726f206164646044820152637265737360e01b6064820152608401610627565b610f368383836001611778565b826001600160a01b0316610f498261095a565b6001600160a01b031614610f6f5760405162461bcd60e51b81526004016106279061304d565b600081815260046020908152604080832080546001600160a01b03199081169091556001600160a01b0387811680865260038552838620805460001901905590871680865283862080546001019055868652600290945282852080549092168417909155905184937fddf252ad1be2c89b69c2b068fc378daa952ba7f163c4a11628f55a4df523b3ef91a46106c88383836001611784565b6108b98133611790565b61101b8282610aba565b610843576000828152600b602090815260408083206001600160a01b03851684529091529020805460ff191660011790556110533390565b6001600160a01b0316816001600160a01b0316837f2f8788117e7eff1d82e926ec794901d17c78024a50270940304540a733656f0d60405160405180910390a45050565b6000306001600160a01b037f0000000000000000000000000000000000000000000000000000000000000000161480156110f057507f000000000000000000000000000000000000000000000000000000000000000046145b1561111a57507f000000000000000000000000000000000000000000000000000000000000000090565b50604080517f00000000000000000000000000000000000000000000000000000000000000006020808301919091527f0000000000000000000000000000000000000000000000000000000000000000828401527f000000000000000000000000000000000000000000000000000000000000000060608301524660808301523060a0808401919091528351808403909101815260c0909201909252805191012090565b6111c88282610aba565b15610843576000828152600b602090815260408083206001600160a01b0385168085529252808320805460ff1916905551339285917ff6391f5c32d9c69d2a47ea670b442974b53935d1edc7fd64eb21e047a839171b9190a45050565b60004382106112765760405162461bcd60e51b815260206004820181905260248201527f436865636b706f696e74733a20626c6f636b206e6f7420796574206d696e65646044820152606401610627565b6000611281836117e9565b845490915060008160058111156112df57600061129d84611852565b6112a790856130a8565b60008981526020902090915081015463ffffffff90811690861610156112cf578091506112dd565b6112da8160016130bf565b92505b505b60006112ed88868585611937565b9050801561132957611312886113046001846130a8565b600091825260209091200190565b5464010000000090046001600160e01b031661132c565b60005b6001600160e01b031698975050505050505050565b6108b981611995565b6001600160a01b038281166000818152600c602052604080822080548686166001600160a01b0319821681179092559151919094169392849290917f3134e8a2e6d97e929a7e54011ea5485d7d196dd5f0ba4d4ef95803e8e3fc257f9190a46106c881836113b7866119d5565b6119e0565b805460009080156113ed576113d6836113046001846130a8565b5464010000000090046001600160e01b0316610869565b60009392505050565b816001600160a01b0316836001600160a01b031614156114585760405162461bcd60e51b815260206004820152601960248201527f4552433732313a20617070726f766520746f2063616c6c6572000000000000006044820152606401610627565b6001600160a01b03838116600081815260056020908152604080832094871680845294825291829020805460ff191686151590811790915591519182527f17307eab39ab6107e8899845ad3d59bd9653f200f220920489ca2b5937696c31910160405180910390a3505050565b6114d0848484610e8e565b6114dc84848484611b1d565b610b615760405162461bcd60e51b8152600401610627906130d7565b60006104f3611505611097565b8360405161190160f01b6020820152602281018390526042810182905260009060620160405160208183030381529060405280519060200120905092915050565b600080600061155787878787611c27565b9150915061156481611ceb565b5095945050505050565b6001600160a01b0381166000908152600f602052604090208054600181018255905b50919050565b60606115a182610d42565b6000828152600a6020526040812080546115ba90612fb5565b80601f01602080910402602001604051908101604052809291908181526020018280546115e690612fb5565b80156116335780601f1061160857610100808354040283529160200191611633565b820191906000526020600020905b81548152906001019060200180831161161657829003601f168201915b50505050509050600061165160408051602081019091526000815290565b9050805160001415611664575092915050565b81511561169657808260405160200161167e929190613129565b60405160208183030381529060405292505050919050565b610e8684611e39565b610843828260405180602001604052806000815250611eac565b6000828152600260205260409020546001600160a01b03166117345760405162461bcd60e51b815260206004820152602e60248201527f45524337323155524953746f726167653a2055524920736574206f66206e6f6e60448201526d32bc34b9ba32b73a103a37b5b2b760911b6064820152608401610627565b6000828152600a6020908152604090912082516106c892840190612b3a565b60006001600160e01b0319821663780e9d6360e01b14806104f357506104f382611edf565b610b6184848484611f2f565b610b6184848484612063565b61179a8282610aba565b610843576117a781612073565b6117b2836020612085565b6040516020016117c3929190613158565b60408051601f198184030181529082905262461bcd60e51b825261062791600401612c90565b600063ffffffff82111561184e5760405162461bcd60e51b815260206004820152602660248201527f53616665436173743a2076616c756520646f65736e27742066697420696e203360448201526532206269747360d01b6064820152608401610627565b5090565b60008161186157506000919050565b6000600161186e84612221565b901c6001901b90506001818481611887576118876131cd565b048201901c9050600181848161189f5761189f6131cd565b048201901c905060018184816118b7576118b76131cd565b048201901c905060018184816118cf576118cf6131cd565b048201901c905060018184816118e7576118e76131cd565b048201901c905060018184816118ff576118ff6131cd565b048201901c90506001818481611917576119176131cd565b048201901c905061086981828581611931576119316131cd565b046122b5565b60005b8183101561198d57600061194e84846122cb565b60008781526020902090915063ffffffff86169082015463ffffffff16111561197957809250611987565b6119848160016130bf565b93505b5061193a565b509392505050565b61199e816122e6565b6000818152600a6020526040902080546119b790612fb5565b1590506108b9576000818152600a602052604081206108b991612bba565b60006104f3826109ba565b816001600160a01b0316836001600160a01b031614158015611a025750600081115b156106c8576001600160a01b03831615611a90576001600160a01b0383166000908152600d602052604081208190611a3d906123938561239f565b91509150846001600160a01b03167fdec2bacdd2f05b59de34da9b523dff8be42e5e38e818c82fdb0bae774387a7248383604051611a85929190918252602082015260400190565b60405180910390a250505b6001600160a01b038216156106c8576001600160a01b0382166000908152600d602052604081208190611ac6906123d78561239f565b91509150836001600160a01b03167fdec2bacdd2f05b59de34da9b523dff8be42e5e38e818c82fdb0bae774387a7248383604051611b0e929190918252602082015260400190565b60405180910390a25050505050565b60006001600160a01b0384163b15611c1f57604051630a85bd0160e11b81526001600160a01b0385169063150b7a0290611b619033908990889088906004016131e3565b602060405180830381600087803b158015611b7b57600080fd5b505af1925050508015611bab575060408051601f3d908101601f19168201909252611ba891810190613220565b60015b611c05573d808015611bd9576040519150601f19603f3d011682016040523d82523d6000602084013e611bde565b606091505b508051611bfd5760405162461bcd60e51b8152600401610627906130d7565b805181602001fd5b6001600160e01b031916630a85bd0160e11b149050610e86565b506001610e86565b6000807f7fffffffffffffffffffffffffffffff5d576e7357a4501ddfe92f46681b20a0831115611c5e5750600090506003611ce2565b6040805160008082526020820180845289905260ff881692820192909252606081018690526080810185905260019060a0016020604051602081039080840390855afa158015611cb2573d6000803e3d6000fd5b5050604051601f1901519150506001600160a01b038116611cdb57600060019250925050611ce2565b9150600090505b94509492505050565b6000816004811115611cff57611cff61323d565b1415611d085750565b6001816004811115611d1c57611d1c61323d565b1415611d6a5760405162461bcd60e51b815260206004820152601860248201527f45434453413a20696e76616c6964207369676e617475726500000000000000006044820152606401610627565b6002816004811115611d7e57611d7e61323d565b1415611dcc5760405162461bcd60e51b815260206004820152601f60248201527f45434453413a20696e76616c6964207369676e6174757265206c656e677468006044820152606401610627565b6003816004811115611de057611de061323d565b14156108b95760405162461bcd60e51b815260206004820152602260248201527f45434453413a20696e76616c6964207369676e6174757265202773272076616c604482015261756560f01b6064820152608401610627565b6060611e4482610d42565b6000611e5b60408051602081019091526000815290565b90506000815111611e7b5760405180602001604052806000815250610869565b80611e85846123e3565b604051602001611e96929190613129565b6040516020818303038152906040529392505050565b611eb68383612478565b611ec36000848484611b1d565b6106c85760405162461bcd60e51b8152600401610627906130d7565b60006001600160e01b031982166380ac58cd60e01b1480611f1057506001600160e01b03198216635b5e139f60e01b145b806104f357506301ffc9a760e01b6001600160e01b03198316146104f3565b6001811115611f9e5760405162461bcd60e51b815260206004820152603560248201527f455243373231456e756d657261626c653a20636f6e7365637574697665207472604482015274185b9cd9995c9cc81b9bdd081cdd5c1c1bdc9d1959605a1b6064820152608401610627565b816001600160a01b038516611ffa57611ff581600880546000838152600960205260408120829055600182018355919091527ff3f7a9fe364faab93b216da50a3214154f22a0a2b415b23a84c8169e8b636ee30155565b61201d565b836001600160a01b0316856001600160a01b03161461201d5761201d858261261b565b6001600160a01b03841661203957612034816126b8565b61205c565b846001600160a01b0316846001600160a01b03161461205c5761205c8482612767565b5050505050565b61206e8484836127ab565b610b61565b60606104f36001600160a01b03831660145b60606000612094836002613253565b61209f9060026130bf565b67ffffffffffffffff8111156120b7576120b7612dc1565b6040519080825280601f01601f1916602001820160405280156120e1576020820181803683370190505b509050600360fc1b816000815181106120fc576120fc613037565b60200101906001600160f81b031916908160001a905350600f60fb1b8160018151811061212b5761212b613037565b60200101906001600160f81b031916908160001a905350600061214f846002613253565b61215a9060016130bf565b90505b60018111156121d2576f181899199a1a9b1b9c1cb0b131b232b360811b85600f166010811061218e5761218e613037565b1a60f81b8282815181106121a4576121a4613037565b60200101906001600160f81b031916908160001a90535060049490941c936121cb81613272565b905061215d565b5083156108695760405162461bcd60e51b815260206004820181905260248201527f537472696e67733a20686578206c656e67746820696e73756666696369656e746044820152606401610627565b600080608083901c1561223657608092831c92015b604083901c1561224857604092831c92015b602083901c1561225a57602092831c92015b601083901c1561226c57601092831c92015b600883901c1561227e57600892831c92015b600483901c1561229057600492831c92015b600283901c156122a257600292831c92015b600183901c156104f35760010192915050565b60008183106122c45781610869565b5090919050565b60006122da6002848418613289565b610869908484166130bf565b60006122f18261095a565b9050612301816000846001611778565b61230a8261095a565b600083815260046020908152604080832080546001600160a01b03199081169091556001600160a01b0385168085526003845282852080546000190190558785526002909352818420805490911690555192935084927fddf252ad1be2c89b69c2b068fc378daa952ba7f163c4a11628f55a4df523b3ef908390a4610843816000846001611784565b600061086982846130a8565b6000806123ca856123c56123b2886113bc565b6001600160e01b0316868863ffffffff16565b61281b565b915091505b935093915050565b600061086982846130bf565b606060006123f08361284f565b600101905060008167ffffffffffffffff81111561241057612410612dc1565b6040519080825280601f01601f19166020018201604052801561243a576020820181803683370190505b5090508181016020015b600019016f181899199a1a9b1b9c1cb0b131b232b360811b600a86061a8153600a85049450846124735761198d565b612444565b6001600160a01b0382166124ce5760405162461bcd60e51b815260206004820181905260248201527f4552433732313a206d696e7420746f20746865207a65726f20616464726573736044820152606401610627565b6000818152600260205260409020546001600160a01b0316156125335760405162461bcd60e51b815260206004820152601c60248201527f4552433732313a20746f6b656e20616c7265616479206d696e746564000000006044820152606401610627565b612541600083836001611778565b6000818152600260205260409020546001600160a01b0316156125a65760405162461bcd60e51b815260206004820152601c60248201527f4552433732313a20746f6b656e20616c7265616479206d696e746564000000006044820152606401610627565b6001600160a01b038216600081815260036020908152604080832080546001019055848352600290915280822080546001600160a01b0319168417905551839291907fddf252ad1be2c89b69c2b068fc378daa952ba7f163c4a11628f55a4df523b3ef908290a4610843600083836001611784565b60006001612628846109ba565b61263291906130a8565b600083815260076020526040902054909150808214612685576001600160a01b03841660009081526006602090815260408083208584528252808320548484528184208190558352600790915290208190555b5060009182526007602090815260408084208490556001600160a01b039094168352600681528383209183525290812055565b6008546000906126ca906001906130a8565b600083815260096020526040812054600880549394509092849081106126f2576126f2613037565b90600052602060002001549050806008838154811061271357612713613037565b600091825260208083209091019290925582815260099091526040808220849055858252812055600880548061274b5761274b6132ab565b6001900381819060005260206000200160009055905550505050565b6000612772836109ba565b6001600160a01b039093166000908152600660209081526040808320868452825280832085905593825260079052919091209190915550565b6001600160a01b0383166127ca576127c7600e6123d78361239f565b50505b6001600160a01b0382166127e9576127e6600e6123938361239f565b50505b6001600160a01b038381166000908152600c60205260408082205485841683529120546106c8929182169116836119e0565b6000806128398461282b436117e9565b61283486612927565b612990565b6001600160e01b03918216969116945092505050565b60008072184f03e93ff9f4daa797ed6e38ed64bf6a1f0160401b831061288e5772184f03e93ff9f4daa797ed6e38ed64bf6a1f0160401b830492506040015b6d04ee2d6d415b85acef810000000083106128ba576d04ee2d6d415b85acef8100000000830492506020015b662386f26fc1000083106128d857662386f26fc10000830492506010015b6305f5e10083106128f0576305f5e100830492506008015b612710831061290457612710830492506004015b60648310612916576064830492506002015b600a83106104f35760010192915050565b60006001600160e01b0382111561184e5760405162461bcd60e51b815260206004820152602760248201527f53616665436173743a2076616c756520646f65736e27742066697420696e20326044820152663234206269747360c81b6064820152608401610627565b825460009081908015612ae05760006129ae876113046001856130a8565b60408051808201909152905463ffffffff8082168084526401000000009092046001600160e01b031660208401529192509087161015612a305760405162461bcd60e51b815260206004820152601760248201527f436865636b706f696e743a20696e76616c6964206b65790000000000000000006044820152606401610627565b8563ffffffff16816000015163ffffffff161415612a805784612a58886113046001866130a8565b80546001600160e01b03929092166401000000000263ffffffff909216919091179055612ad0565b6040805180820190915263ffffffff80881682526001600160e01b0380881660208085019182528b54600181018d5560008d81529190912094519151909216640100000000029216919091179101555b6020015192508391506123cf9050565b50506040805180820190915263ffffffff80851682526001600160e01b0380851660208085019182528854600181018a5560008a8152918220955192519093166401000000000291909316179201919091559050816123cf565b828054612b4690612fb5565b90600052602060002090601f016020900481019282612b685760008555612bae565b82601f10612b8157805160ff1916838001178555612bae565b82800160010185558215612bae579182015b82811115612bae578251825591602001919060010190612b93565b5061184e929150612bf0565b508054612bc690612fb5565b6000825580601f10612bd6575050565b601f0160209004906000526020600020908101906108b991905b5b8082111561184e5760008155600101612bf1565b6001600160e01b0319811681146108b957600080fd5b600060208284031215612c2d57600080fd5b813561086981612c05565b60005b83811015612c53578181015183820152602001612c3b565b83811115610b615750506000910152565b60008151808452612c7c816020860160208601612c38565b601f01601f19169290920160200192915050565b6020815260006108696020830184612c64565b600060208284031215612cb557600080fd5b5035919050565b80356001600160a01b0381168114612cd357600080fd5b919050565b60008060408385031215612ceb57600080fd5b612cf483612cbc565b946020939093013593505050565b600080600060608486031215612d1757600080fd5b612d2084612cbc565b9250612d2e60208501612cbc565b9150604084013590509250925092565b60008060408385031215612d5157600080fd5b82359150612d6160208401612cbc565b90509250929050565b600060208284031215612d7c57600080fd5b61086982612cbc565b60008060408385031215612d9857600080fd5b612da183612cbc565b915060208301358015158114612db657600080fd5b809150509250929050565b634e487b7160e01b600052604160045260246000fd5b600067ffffffffffffffff80841115612df257612df2612dc1565b604051601f8501601f19908116603f01168101908282118183101715612e1a57612e1a612dc1565b81604052809350858152868686011115612e3357600080fd5b858560208301376000602087830101525050509392505050565b60008060008060808587031215612e6357600080fd5b612e6c85612cbc565b9350612e7a60208601612cbc565b925060408501359150606085013567ffffffffffffffff811115612e9d57600080fd5b8501601f81018713612eae57600080fd5b612ebd87823560208401612dd7565b91505092959194509250565b60008060008060008060c08789031215612ee257600080fd5b612eeb87612cbc565b95506020870135945060408701359350606087013560ff81168114612f0f57600080fd5b9598949750929560808101359460a0909101359350915050565b60008060408385031215612f3c57600080fd5b612f4583612cbc565b9150602083013567ffffffffffffffff811115612f6157600080fd5b8301601f81018513612f7257600080fd5b612f8185823560208401612dd7565b9150509250929050565b60008060408385031215612f9e57600080fd5b612fa783612cbc565b9150612d6160208401612cbc565b600181811c90821680612fc957607f821691505b6020821081141561159057634e487b7160e01b600052602260045260246000fd5b6020808252602d908201527f4552433732313a2063616c6c6572206973206e6f7420746f6b656e206f776e6560408201526c1c881bdc88185c1c1c9bdd9959609a1b606082015260800190565b634e487b7160e01b600052603260045260246000fd5b60208082526025908201527f4552433732313a207472616e736665722066726f6d20696e636f72726563742060408201526437bbb732b960d91b606082015260800190565b634e487b7160e01b600052601160045260246000fd5b6000828210156130ba576130ba613092565b500390565b600082198211156130d2576130d2613092565b500190565b60208082526032908201527f4552433732313a207472616e7366657220746f206e6f6e20455243373231526560408201527131b2b4bb32b91034b6b83632b6b2b73a32b960711b606082015260800190565b6000835161313b818460208801612c38565b83519083019061314f818360208801612c38565b01949350505050565b7f416363657373436f6e74726f6c3a206163636f756e7420000000000000000000815260008351613190816017850160208801612c38565b7001034b99036b4b9b9b4b733903937b6329607d1b60179184019182015283516131c1816028840160208801612c38565b01602801949350505050565b634e487b7160e01b600052601260045260246000fd5b6001600160a01b038581168252841660208201526040810183905260806060820181905260009061321690830184612c64565b9695505050505050565b60006020828403121561323257600080fd5b815161086981612c05565b634e487b7160e01b600052602160045260246000fd5b600081600019048311821515161561326d5761326d613092565b500290565b60008161328157613281613092565b506000190190565b6000826132a657634e487b7160e01b600052601260045260246000fd5b500490565b634e487b7160e01b600052603160045260246000fdfea2646970667358221220b4edc9a7392b777cdea7d4d6263065f5c132a2ea650126b3d53f4a69a413cc9264736f6c63430008090033",
  "linkReferences": {},
  "deployedLinkReferences": {}
}